{
  "contractName": "KittyContract",
  "abi": [
    {
      "constant": true,
      "inputs": [],
      "name": "tokenName",
      "outputs": [
        {
          "name": "",
          "type": "string"
        }
      ],
      "payable": false,
      "stateMutability": "view",
      "type": "function"
    },
    {
      "constant": false,
      "inputs": [],
      "name": "renounceOwnership",
      "outputs": [],
      "payable": false,
      "stateMutability": "nonpayable",
      "type": "function"
    },
    {
      "constant": true,
      "inputs": [],
      "name": "tokenSymbol",
      "outputs": [
        {
          "name": "",
          "type": "string"
        }
      ],
      "payable": false,
      "stateMutability": "view",
      "type": "function"
    },
    {
      "constant": true,
      "inputs": [],
      "name": "owner",
      "outputs": [
        {
          "name": "",
          "type": "address"
        }
      ],
      "payable": false,
      "stateMutability": "view",
      "type": "function"
    },
    {
      "constant": true,
      "inputs": [],
      "name": "isOwner",
      "outputs": [
        {
          "name": "",
          "type": "bool"
        }
      ],
      "payable": false,
      "stateMutability": "view",
      "type": "function"
    },
    {
      "constant": true,
      "inputs": [],
      "name": "CREATION_LIMIT_GEN0",
      "outputs": [
        {
          "name": "",
          "type": "uint256"
        }
      ],
      "payable": false,
      "stateMutability": "view",
      "type": "function"
    },
    {
      "constant": true,
      "inputs": [],
      "name": "gen0Counter",
      "outputs": [
        {
          "name": "",
          "type": "uint256"
        }
      ],
      "payable": false,
      "stateMutability": "view",
      "type": "function"
    },
    {
      "constant": false,
      "inputs": [
        {
          "name": "newOwner",
          "type": "address"
        }
      ],
      "name": "transferOwnership",
      "outputs": [],
      "payable": false,
      "stateMutability": "nonpayable",
      "type": "function"
    },
    {
      "anonymous": false,
      "inputs": [
        {
          "indexed": false,
          "name": "owner",
          "type": "address"
        },
        {
          "indexed": false,
          "name": "KittenId",
          "type": "uint256"
        },
        {
          "indexed": false,
          "name": "mumId",
          "type": "uint256"
        },
        {
          "indexed": false,
          "name": "dadId",
          "type": "uint256"
        },
        {
          "indexed": false,
          "name": "genes",
          "type": "uint256"
        }
      ],
      "name": "Birth",
      "type": "event"
    },
    {
      "anonymous": false,
      "inputs": [
        {
          "indexed": true,
          "name": "previousOwner",
          "type": "address"
        },
        {
          "indexed": true,
          "name": "newOwner",
          "type": "address"
        }
      ],
      "name": "OwnershipTransferred",
      "type": "event"
    },
    {
      "anonymous": false,
      "inputs": [
        {
          "indexed": true,
          "name": "from",
          "type": "address"
        },
        {
          "indexed": true,
          "name": "to",
          "type": "address"
        },
        {
          "indexed": true,
          "name": "tokenId",
          "type": "uint256"
        }
      ],
      "name": "Transfer",
      "type": "event"
    },
    {
      "anonymous": false,
      "inputs": [
        {
          "indexed": true,
          "name": "owner",
          "type": "address"
        },
        {
          "indexed": true,
          "name": "approved",
          "type": "address"
        },
        {
          "indexed": true,
          "name": "tokenId",
          "type": "uint256"
        }
      ],
      "name": "Approval",
      "type": "event"
    },
    {
      "constant": false,
      "inputs": [
        {
          "name": "_genes",
          "type": "uint256"
        }
      ],
      "name": "createKittyGen0",
      "outputs": [
        {
          "name": "",
          "type": "uint256"
        }
      ],
      "payable": false,
      "stateMutability": "nonpayable",
      "type": "function"
    },
    {
      "constant": true,
      "inputs": [
        {
          "name": "owner",
          "type": "address"
        }
      ],
      "name": "balanceOf",
      "outputs": [
        {
          "name": "balance",
          "type": "uint256"
        }
      ],
      "payable": false,
      "stateMutability": "view",
      "type": "function"
    },
    {
      "constant": true,
      "inputs": [],
      "name": "totalSupply",
      "outputs": [
        {
          "name": "total",
          "type": "uint256"
        }
      ],
      "payable": false,
      "stateMutability": "view",
      "type": "function"
    },
    {
      "constant": true,
      "inputs": [],
      "name": "name",
      "outputs": [
        {
          "name": "_tokenName",
          "type": "string"
        }
      ],
      "payable": false,
      "stateMutability": "view",
      "type": "function"
    },
    {
      "constant": true,
      "inputs": [],
      "name": "symbol",
      "outputs": [
        {
          "name": "_tokenSymbol",
          "type": "string"
        }
      ],
      "payable": false,
      "stateMutability": "view",
      "type": "function"
    },
    {
      "constant": true,
      "inputs": [
        {
          "name": "tokenId",
          "type": "uint256"
        }
      ],
      "name": "ownerOf",
      "outputs": [
        {
          "name": "owner",
          "type": "address"
        }
      ],
      "payable": false,
      "stateMutability": "view",
      "type": "function"
    },
    {
      "constant": false,
      "inputs": [
        {
          "name": "to",
          "type": "address"
        },
        {
          "name": "tokenId",
          "type": "uint256"
        }
      ],
      "name": "transfer",
      "outputs": [],
      "payable": false,
      "stateMutability": "nonpayable",
      "type": "function"
    },
    {
      "constant": true,
      "inputs": [
        {
          "name": "_tokenId",
          "type": "uint256"
        }
      ],
      "name": "getKatInformation",
      "outputs": [
        {
          "name": "genes",
          "type": "uint256"
        },
        {
          "name": "timeOfBirth",
          "type": "uint256"
        },
        {
          "name": "mumId",
          "type": "uint256"
        },
        {
          "name": "dadId",
          "type": "uint256"
        },
        {
          "name": "generation",
          "type": "uint256"
        }
      ],
      "payable": false,
      "stateMutability": "view",
      "type": "function"
    }
  ],
  "bytecode": "0x6080604052336000806101000a81548173ffffffffffffffffffffffffffffffffffffffff021916908373ffffffffffffffffffffffffffffffffffffffff1602179055506000809054906101000a900473ffffffffffffffffffffffffffffffffffffffff1673ffffffffffffffffffffffffffffffffffffffff16600073ffffffffffffffffffffffffffffffffffffffff167f8be0079c531659141344cd1fd0a4f28419497f9722a3daafe3b4186f6b6457e060405160405180910390a361132b806100cf6000396000f3fe6080604052600436106100e6576000357c0100000000000000000000000000000000000000000000000000000000900463ffffffff16806306fdde03146100eb57806318160ddd1461017b5780636352211e146101a65780636c02a9311461022157806370a08231146102b1578063715018a6146103165780637b61c3201461032d5780638da5cb5b146103bd5780638f32d59b1461041457806395d89b4114610443578063a9059cbb146104d3578063b48343301461052e578063bbc8c80614610559578063d5a776ca146105c4578063ef5e94aa14610613578063f2fde38b1461063e575b600080fd5b3480156100f757600080fd5b5061010061068f565b6040518080602001828103825283818151815260200191508051906020019080838360005b83811015610140578082015181840152602081019050610125565b50505050905090810190601f16801561016d5780820380516001836020036101000a031916815260200191505b509250505060405180910390f35b34801561018757600080fd5b506101906106cc565b6040518082815260200191505060405180910390f35b3480156101b257600080fd5b506101df600480360360208110156101c957600080fd5b81019080803590602001909291905050506106d9565b604051808273ffffffffffffffffffffffffffffffffffffffff1673ffffffffffffffffffffffffffffffffffffffff16815260200191505060405180910390f35b34801561022d57600080fd5b506102366107ed565b6040518080602001828103825283818151815260200191508051906020019080838360005b8381101561027657808201518184015260208101905061025b565b50505050905090810190601f1680156102a35780820380516001836020036101000a031916815260200191505b509250505060405180910390f35b3480156102bd57600080fd5b50610300600480360360208110156102d457600080fd5b81019080803573ffffffffffffffffffffffffffffffffffffffff169060200190929190505050610826565b6040518082815260200191505060405180910390f35b34801561032257600080fd5b5061032b61086f565b005b34801561033957600080fd5b50610342610941565b6040518080602001828103825283818151815260200191508051906020019080838360005b83811015610382578082015181840152602081019050610367565b50505050905090810190601f1680156103af5780820380516001836020036101000a031916815260200191505b509250505060405180910390f35b3480156103c957600080fd5b506103d261097a565b604051808273ffffffffffffffffffffffffffffffffffffffff1673ffffffffffffffffffffffffffffffffffffffff16815260200191505060405180910390f35b34801561042057600080fd5b506104296109a3565b604051808215151515815260200191505060405180910390f35b34801561044f57600080fd5b506104586109fa565b6040518080602001828103825283818151815260200191508051906020019080838360005b8381101561049857808201518184015260208101905061047d565b50505050905090810190601f1680156104c55780820380516001836020036101000a031916815260200191505b509250505060405180910390f35b3480156104df57600080fd5b5061052c600480360360408110156104f657600080fd5b81019080803573ffffffffffffffffffffffffffffffffffffffff16906020019092919080359060200190929190505050610a37565b005b34801561053a57600080fd5b50610543610c59565b6040518082815260200191505060405180910390f35b34801561056557600080fd5b506105926004803603602081101561057c57600080fd5b8101908080359060200190929190505050610c5f565b604051808681526020018581526020018481526020018381526020018281526020019550505050505060405180910390f35b3480156105d057600080fd5b506105fd600480360360208110156105e757600080fd5b8101908080359060200190929190505050610d87565b6040518082815260200191505060405180910390f35b34801561061f57600080fd5b50610628610dd6565b6040518082815260200191505060405180910390f35b34801561064a57600080fd5b5061068d6004803603602081101561066157600080fd5b81019080803573ffffffffffffffffffffffffffffffffffffffff169060200190929190505050610ddc565b005b60606040805190810160405280600c81526020017f48656c6c6f4b6974746965730000000000000000000000000000000000000000815250905090565b6000600380549050905090565b60008073ffffffffffffffffffffffffffffffffffffffff166002600084815260200190815260200160002060009054906101000a900473ffffffffffffffffffffffffffffffffffffffff1673ffffffffffffffffffffffffffffffffffffffff16141515156107b2576040517f08c379a00000000000000000000000000000000000000000000000000000000081526004018080602001828103825260188152602001807f4552433732313a20496e76616c696420746f6b656e204944000000000000000081525060200191505060405180910390fd5b6002600083815260200190815260200160002060009054906101000a900473ffffffffffffffffffffffffffffffffffffffff169050919050565b6040805190810160405280600c81526020017f48656c6c6f4b697474696573000000000000000000000000000000000000000081525081565b6000600160008373ffffffffffffffffffffffffffffffffffffffff1673ffffffffffffffffffffffffffffffffffffffff168152602001908152602001600020549050919050565b6108776109a3565b151561088257600080fd5b600073ffffffffffffffffffffffffffffffffffffffff166000809054906101000a900473ffffffffffffffffffffffffffffffffffffffff1673ffffffffffffffffffffffffffffffffffffffff167f8be0079c531659141344cd1fd0a4f28419497f9722a3daafe3b4186f6b6457e060405160405180910390a360008060006101000a81548173ffffffffffffffffffffffffffffffffffffffff021916908373ffffffffffffffffffffffffffffffffffffffff160217905550565b6040805190810160405280600381526020017f4b5459000000000000000000000000000000000000000000000000000000000081525081565b60008060009054906101000a900473ffffffffffffffffffffffffffffffffffffffff16905090565b60008060009054906101000a900473ffffffffffffffffffffffffffffffffffffffff1673ffffffffffffffffffffffffffffffffffffffff163373ffffffffffffffffffffffffffffffffffffffff1614905090565b60606040805190810160405280600381526020017f4b54590000000000000000000000000000000000000000000000000000000000815250905090565b600073ffffffffffffffffffffffffffffffffffffffff168273ffffffffffffffffffffffffffffffffffffffff1614151515610b02576040517f08c379a00000000000000000000000000000000000000000000000000000000081526004018080602001828103825260258152602001807f43616e6e6f74207472616e7366657220746f6b656e20746f205a65726f20616481526020017f647265737300000000000000000000000000000000000000000000000000000081525060400191505060405180910390fd5b3073ffffffffffffffffffffffffffffffffffffffff168273ffffffffffffffffffffffffffffffffffffffff1614151515610ba6576040517f08c379a000000000000000000000000000000000000000000000000000000000815260040180806020018281038252601d8152602001807f43616e6e6f742073656e6420746f6b656e20746f20436f6e747261637400000081525060200191505060405180910390fd5b610bb03382610dfb565b1515610c4a576040517f08c379a000000000000000000000000000000000000000000000000000000000815260040180806020018281038252602a8152602001807f546f6b656e206d75737420626520796f75727320696620796f752077616e742081526020017f746f2073656e642069740000000000000000000000000000000000000000000081525060400191505060405180910390fd5b610c55338383610e67565b5050565b61045781565b6000806000806000600386815481101515610c7657fe5b906000526020600020906002020160000154600387815481101515610c9757fe5b906000526020600020906002020160010160009054906101000a900467ffffffffffffffff16600388815481101515610ccc57fe5b906000526020600020906002020160010160089054906101000a900463ffffffff16600389815481101515610cfd57fe5b9060005260206000209060020201600101600c9054906101000a900463ffffffff1660038a815481101515610d2e57fe5b906000526020600020906002020160010160109054906101000a900461ffff168367ffffffffffffffff1693508263ffffffff1692508163ffffffff1691508061ffff1690509450945094509450945091939590929450565b6000610d916109a3565b1515610d9c57600080fd5b610457600454101515610dae57600080fd5b600460008154809291906001019190505550610dcf60008060008533610fef565b9050919050565b60045481565b610de46109a3565b1515610def57600080fd5b610df8816111bb565b50565b60008273ffffffffffffffffffffffffffffffffffffffff166002600084815260200190815260200160002060009054906101000a900473ffffffffffffffffffffffffffffffffffffffff1673ffffffffffffffffffffffffffffffffffffffff1614905092915050565b600160008373ffffffffffffffffffffffffffffffffffffffff1673ffffffffffffffffffffffffffffffffffffffff16815260200190815260200160002060008154809291906001019190505550816002600083815260200190815260200160002060006101000a81548173ffffffffffffffffffffffffffffffffffffffff021916908373ffffffffffffffffffffffffffffffffffffffff160217905550600073ffffffffffffffffffffffffffffffffffffffff168373ffffffffffffffffffffffffffffffffffffffff16141515610f8f57600160008473ffffffffffffffffffffffffffffffffffffffff1673ffffffffffffffffffffffffffffffffffffffff16815260200190815260200160002060008154809291906001900391905055505b808273ffffffffffffffffffffffffffffffffffffffff163373ffffffffffffffffffffffffffffffffffffffff167fddf252ad1be2c89b69c2b068fc378daa952ba7f163c4a11628f55a4df523b3ef60405160405180910390a4505050565b6000610ff96112b5565b60a0604051908101604052808581526020014267ffffffffffffffff1681526020018863ffffffff1681526020018763ffffffff1681526020018661ffff16815250905060006001600383908060018154018082558091505090600182039060005260206000209060020201600090919290919091506000820151816000015560208201518160010160006101000a81548167ffffffffffffffff021916908367ffffffffffffffff16021790555060408201518160010160086101000a81548163ffffffff021916908363ffffffff160217905550606082015181600101600c6101000a81548163ffffffff021916908363ffffffff16021790555060808201518160010160106101000a81548161ffff021916908361ffff16021790555050500390507f0a5311bd2a6608f08a180df2ee7c5946819a649b204b554bb8e39825b2c50ad584828a8a89604051808673ffffffffffffffffffffffffffffffffffffffff1673ffffffffffffffffffffffffffffffffffffffff1681526020018581526020018481526020018381526020018281526020019550505050505060405180910390a16111ad60008583610e67565b809250505095945050505050565b600073ffffffffffffffffffffffffffffffffffffffff168173ffffffffffffffffffffffffffffffffffffffff16141515156111f757600080fd5b8073ffffffffffffffffffffffffffffffffffffffff166000809054906101000a900473ffffffffffffffffffffffffffffffffffffffff1673ffffffffffffffffffffffffffffffffffffffff167f8be0079c531659141344cd1fd0a4f28419497f9722a3daafe3b4186f6b6457e060405160405180910390a3806000806101000a81548173ffffffffffffffffffffffffffffffffffffffff021916908373ffffffffffffffffffffffffffffffffffffffff16021790555050565b60a06040519081016040528060008152602001600067ffffffffffffffff168152602001600063ffffffff168152602001600063ffffffff168152602001600061ffff168152509056fea165627a7a7230582013080ec0df0534678b1499026c54cca1d0c4c01f3834bee8be237a401f3438630029",
  "source": "pragma solidity ^0.5.0;\n\nimport \"./IERC721.sol\";\nimport \"./Ownable.sol\";\n\ncontract KittyContract is IERC721, Ownable {\n\n// Mapping owner address to token count\nmapping(address => uint) ownershipTokenCount;\n\n// Mapping from token ID to owner address\nmapping (uint256=>address) tokenIdHolder;\n\n//stuct of kitty\nstruct Kitty{\n    uint256 genes;\n    uint64 timeOfBirth;\n    uint32 mumId;\n    uint32 dadId;\n    uint16 generation;\n}\n\n//array of kitty's called Kittens for totalSupply function\nKitty[] Kitties;\n\n// Token name \nstring public constant tokenName = \"HelloKitties\";\n\n// Token symbol \nstring public constant tokenSymbol = \"KTY\";\n\n\n/** CRYPTOKITTIES FUNCTIONS \n\n\nFunctions that we need for this to work:\nThere are several ways to create a cat:\n\nGen0 cat creation => That creates a generation 0 cat. This is mostly limited to a max creation.\nBreeding cat creation => This is done with 2 cats. 1 dad and 1 mom. This will be a second generation cat if both parent cats are Gen0\n*/\n//EVENTS\nevent Birth(\n    address owner, \n    uint256 KittenId, \n    uint256 mumId, \n    uint256 dadId, \n    uint256 genes\n);\n// the amount of maximum Kitties that can be created\nuint256 public constant CREATION_LIMIT_GEN0 = 1111;\n\n//Counts the amount of Kitties created\nuint256 public gen0Counter;\n\n\n//FUNCTIONS\nfunction createKittyGen0(uint256 _genes) public onlyOwner returns (uint256){\n    //LIMIT THE AMOUNT OF GEN0 KITTIES\n    require(gen0Counter < CREATION_LIMIT_GEN0);\n    gen0Counter++;\n\n    //Gen0 have no owners, they are own by the contract\n    return _createKitty(0, 0, 0, _genes, msg.sender);\n}\n\n\nfunction _createKitty(\n    uint256 _mumId,\n    uint256 _dadId,\n    uint256 _generation,\n    uint256 _genes,\n    address _owner\n)private returns (uint256){\n    Kitty memory _Kitty = Kitty({\n        genes: _genes,\n        timeOfBirth: uint64(now),\n        mumId: uint32(_mumId),\n        dadId: uint32(_dadId),\n        generation: uint16(_generation)\n    });\n    uint256 newKittenId = Kitties.push(_Kitty) - 1;\n\n    emit Birth(_owner, newKittenId, _mumId, _dadId, _genes);\n\n    _transfer(address(0), _owner, newKittenId);\n\n    return newKittenId;\n}\n\n\n/**\n     * @dev Returns the number of tokens in ``owner``'s account.\n     */\n    function balanceOf(address owner) external view returns (uint256 balance){\n        return ownershipTokenCount[owner];\n    }\n\n    /*\n     * @dev Returns the total number of tokens in circulation.\n     */\n    function totalSupply() external view returns (uint256 total){\n        return Kitties.length;\n    }\n    /*\n     * @dev Returns the name of the token.\n     */\n    function name() external view returns (string memory _tokenName){\n        return tokenName; \n    }\n\n    /*\n     * @dev Returns the symbol of the token.\n     */\n    function symbol() external view returns (string memory _tokenSymbol){\n        return tokenSymbol;\n    }\n\n    /**\n     * @dev Returns the owner of the `tokenId` token.\n     *\n     * Requirements:\n     *\n     * - `tokenId` must exist.\n     */\n    function ownerOf(uint256 tokenId) external view returns (address owner){\n        require(tokenIdHolder[tokenId] != address(0), \"ERC721: Invalid token ID\");\n        return tokenIdHolder[tokenId];\n    }\n\n\n     /* @dev Transfers `tokenId` token from `msg.sender` to `to`.\n     *\n     *\n     * Requirements:\n     *\n     * - `to` cannot be the zero address.\n     * - `to` can not be the contract address.\n     * - `tokenId` token must be owned by `msg.sender`.\n     *\n     * Emits a {Transfer} event.\n     */\n    function transfer(address to, uint256 tokenId) external{\n    require(to != address(0), \"Cannot transfer token to Zero address\");\n    require(to != address(this), \"Cannot send token to Contract\");\n    require(_owns(msg.sender, tokenId), \"Token must be yours if you want to send it\");\n\n    _transfer(msg.sender, to, tokenId);\n\n    }\n\n    function _transfer(address _from, address _to, uint256 _tokenId) internal {\n        ownershipTokenCount[_to]++;\n\n        tokenIdHolder[_tokenId] = _to;\n\n        if(_from != address(0)){\n            ownershipTokenCount[_from] --;\n        }\n\n        emit Transfer(msg.sender, _to, _tokenId);\n    }\n\n    function _owns(address _claimant, uint256 _tokenId) internal view returns(bool){\n        return tokenIdHolder[_tokenId] == _claimant;\n    }\n\n    function getKatInformation(uint256 _tokenId) public view returns( uint256 genes, uint256 timeOfBirth, uint256 mumId, uint256 dadId, uint256 generation){\n        return (Kitties[_tokenId].genes, Kitties[_tokenId].timeOfBirth, Kitties[_tokenId].mumId, Kitties[_tokenId].dadId, Kitties[_tokenId].generation);\n    }\n}\n",
  "sourcePath": "/Users/silkuijt/Documents/Crypto/Moralis Academy/Building_an_NFT_Marketplace/NFT_MarketPlace_Phillip/contracts/Kittycontract.sol",
  "compiler": {
    "name": "solc",
    "version": "0.5.0+commit.1d4f565a.Emscripten.clang"
  },
  "schemaVersion": "3.4.4",
  "updatedAt": "2022-08-02T15:34:18.336Z",
  "networkType": "ethereum",
  "devdoc": {
    "methods": {
      "balanceOf(address)": {
        "details": "Returns the number of tokens in ``owner``'s account."
      },
      "isOwner()": {
        "return": "true if `msg.sender` is the owner of the contract."
      },
      "owner()": {
        "return": "the address of the owner."
      },
      "ownerOf(uint256)": {
        "details": "Returns the owner of the `tokenId` token.     * Requirements:     * - `tokenId` must exist."
      },
      "renounceOwnership()": {
        "details": "Allows the current owner to relinquish control of the contract."
      },
      "transferOwnership(address)": {
        "details": "Allows the current owner to transfer control of the contract to a newOwner.",
        "params": {
          "newOwner": "The address to transfer ownership to."
        }
      }
    }
  },
  "userdoc": {
    "methods": {
      "renounceOwnership()": {
        "notice": "Renouncing to ownership will leave the contract without an owner. It will not be possible to call the functions with the `onlyOwner` modifier anymore."
      }
    }
  }
}